{
  "_format": "hh-sol-artifact-1",
  "contractName": "ZineNFT",
  "sourceName": "contracts/ZineNFT.sol",
  "abi": [
    {
      "inputs": [],
      "stateMutability": "nonpayable",
      "type": "constructor"
    },
    {
      "inputs": [
        {
          "internalType": "address",
          "name": "sender",
          "type": "address"
        },
        {
          "internalType": "uint256",
          "name": "tokenId",
          "type": "uint256"
        },
        {
          "internalType": "address",
          "name": "owner",
          "type": "address"
        }
      ],
      "name": "ERC721IncorrectOwner",
      "type": "error"
    },
    {
      "inputs": [
        {
          "internalType": "address",
          "name": "operator",
          "type": "address"
        },
        {
          "internalType": "uint256",
          "name": "tokenId",
          "type": "uint256"
        }
      ],
      "name": "ERC721InsufficientApproval",
      "type": "error"
    },
    {
      "inputs": [
        {
          "internalType": "address",
          "name": "approver",
          "type": "address"
        }
      ],
      "name": "ERC721InvalidApprover",
      "type": "error"
    },
    {
      "inputs": [
        {
          "internalType": "address",
          "name": "operator",
          "type": "address"
        }
      ],
      "name": "ERC721InvalidOperator",
      "type": "error"
    },
    {
      "inputs": [
        {
          "internalType": "address",
          "name": "owner",
          "type": "address"
        }
      ],
      "name": "ERC721InvalidOwner",
      "type": "error"
    },
    {
      "inputs": [
        {
          "internalType": "address",
          "name": "receiver",
          "type": "address"
        }
      ],
      "name": "ERC721InvalidReceiver",
      "type": "error"
    },
    {
      "inputs": [
        {
          "internalType": "address",
          "name": "sender",
          "type": "address"
        }
      ],
      "name": "ERC721InvalidSender",
      "type": "error"
    },
    {
      "inputs": [
        {
          "internalType": "uint256",
          "name": "tokenId",
          "type": "uint256"
        }
      ],
      "name": "ERC721NonexistentToken",
      "type": "error"
    },
    {
      "anonymous": false,
      "inputs": [
        {
          "indexed": true,
          "internalType": "address",
          "name": "owner",
          "type": "address"
        },
        {
          "indexed": true,
          "internalType": "address",
          "name": "approved",
          "type": "address"
        },
        {
          "indexed": true,
          "internalType": "uint256",
          "name": "tokenId",
          "type": "uint256"
        }
      ],
      "name": "Approval",
      "type": "event"
    },
    {
      "anonymous": false,
      "inputs": [
        {
          "indexed": true,
          "internalType": "address",
          "name": "owner",
          "type": "address"
        },
        {
          "indexed": true,
          "internalType": "address",
          "name": "operator",
          "type": "address"
        },
        {
          "indexed": false,
          "internalType": "bool",
          "name": "approved",
          "type": "bool"
        }
      ],
      "name": "ApprovalForAll",
      "type": "event"
    },
    {
      "anonymous": false,
      "inputs": [
        {
          "indexed": true,
          "internalType": "address",
          "name": "from",
          "type": "address"
        },
        {
          "indexed": true,
          "internalType": "address",
          "name": "to",
          "type": "address"
        },
        {
          "indexed": true,
          "internalType": "uint256",
          "name": "tokenId",
          "type": "uint256"
        }
      ],
      "name": "Transfer",
      "type": "event"
    },
    {
      "inputs": [
        {
          "internalType": "address",
          "name": "to",
          "type": "address"
        },
        {
          "internalType": "uint256",
          "name": "tokenId",
          "type": "uint256"
        }
      ],
      "name": "approve",
      "outputs": [],
      "stateMutability": "nonpayable",
      "type": "function"
    },
    {
      "inputs": [
        {
          "internalType": "address",
          "name": "owner",
          "type": "address"
        }
      ],
      "name": "balanceOf",
      "outputs": [
        {
          "internalType": "uint256",
          "name": "",
          "type": "uint256"
        }
      ],
      "stateMutability": "view",
      "type": "function"
    },
    {
      "inputs": [
        {
          "internalType": "uint256",
          "name": "tokenId",
          "type": "uint256"
        }
      ],
      "name": "getApproved",
      "outputs": [
        {
          "internalType": "address",
          "name": "",
          "type": "address"
        }
      ],
      "stateMutability": "view",
      "type": "function"
    },
    {
      "inputs": [
        {
          "internalType": "uint256",
          "name": "tokenId",
          "type": "uint256"
        }
      ],
      "name": "getBookTitle",
      "outputs": [
        {
          "internalType": "string",
          "name": "",
          "type": "string"
        }
      ],
      "stateMutability": "view",
      "type": "function"
    },
    {
      "inputs": [
        {
          "internalType": "address",
          "name": "owner",
          "type": "address"
        },
        {
          "internalType": "address",
          "name": "operator",
          "type": "address"
        }
      ],
      "name": "isApprovedForAll",
      "outputs": [
        {
          "internalType": "bool",
          "name": "",
          "type": "bool"
        }
      ],
      "stateMutability": "view",
      "type": "function"
    },
    {
      "inputs": [
        {
          "internalType": "string",
          "name": "bookTitle",
          "type": "string"
        }
      ],
      "name": "mint",
      "outputs": [],
      "stateMutability": "nonpayable",
      "type": "function"
    },
    {
      "inputs": [],
      "name": "name",
      "outputs": [
        {
          "internalType": "string",
          "name": "",
          "type": "string"
        }
      ],
      "stateMutability": "view",
      "type": "function"
    },
    {
      "inputs": [
        {
          "internalType": "uint256",
          "name": "tokenId",
          "type": "uint256"
        }
      ],
      "name": "ownerOf",
      "outputs": [
        {
          "internalType": "address",
          "name": "",
          "type": "address"
        }
      ],
      "stateMutability": "view",
      "type": "function"
    },
    {
      "inputs": [
        {
          "internalType": "address",
          "name": "from",
          "type": "address"
        },
        {
          "internalType": "address",
          "name": "to",
          "type": "address"
        },
        {
          "internalType": "uint256",
          "name": "tokenId",
          "type": "uint256"
        }
      ],
      "name": "safeTransferFrom",
      "outputs": [],
      "stateMutability": "nonpayable",
      "type": "function"
    },
    {
      "inputs": [
        {
          "internalType": "address",
          "name": "from",
          "type": "address"
        },
        {
          "internalType": "address",
          "name": "to",
          "type": "address"
        },
        {
          "internalType": "uint256",
          "name": "tokenId",
          "type": "uint256"
        },
        {
          "internalType": "bytes",
          "name": "data",
          "type": "bytes"
        }
      ],
      "name": "safeTransferFrom",
      "outputs": [],
      "stateMutability": "nonpayable",
      "type": "function"
    },
    {
      "inputs": [
        {
          "internalType": "address",
          "name": "operator",
          "type": "address"
        },
        {
          "internalType": "bool",
          "name": "approved",
          "type": "bool"
        }
      ],
      "name": "setApprovalForAll",
      "outputs": [],
      "stateMutability": "nonpayable",
      "type": "function"
    },
    {
      "inputs": [
        {
          "internalType": "bytes4",
          "name": "interfaceId",
          "type": "bytes4"
        }
      ],
      "name": "supportsInterface",
      "outputs": [
        {
          "internalType": "bool",
          "name": "",
          "type": "bool"
        }
      ],
      "stateMutability": "view",
      "type": "function"
    },
    {
      "inputs": [],
      "name": "symbol",
      "outputs": [
        {
          "internalType": "string",
          "name": "",
          "type": "string"
        }
      ],
      "stateMutability": "view",
      "type": "function"
    },
    {
      "inputs": [
        {
          "internalType": "uint256",
          "name": "tokenId",
          "type": "uint256"
        }
      ],
      "name": "tokenURI",
      "outputs": [
        {
          "internalType": "string",
          "name": "",
          "type": "string"
        }
      ],
      "stateMutability": "view",
      "type": "function"
    },
    {
      "inputs": [
        {
          "internalType": "address",
          "name": "from",
          "type": "address"
        },
        {
          "internalType": "address",
          "name": "to",
          "type": "address"
        },
        {
          "internalType": "uint256",
          "name": "tokenId",
          "type": "uint256"
        }
      ],
      "name": "transferFrom",
      "outputs": [],
      "stateMutability": "nonpayable",
      "type": "function"
    }
  ],
  "bytecode": "0x60806040523480156200001157600080fd5b506040518060400160405280600881526020017f5a696e65204e46540000000000000000000000000000000000000000000000008152506040518060400160405280600481526020017f5a494e450000000000000000000000000000000000000000000000000000000081525081600090816200008f919062000324565b508060019081620000a1919062000324565b5050506200040b565b600081519050919050565b7f4e487b7100000000000000000000000000000000000000000000000000000000600052604160045260246000fd5b7f4e487b7100000000000000000000000000000000000000000000000000000000600052602260045260246000fd5b600060028204905060018216806200012c57607f821691505b602082108103620001425762000141620000e4565b5b50919050565b60008190508160005260206000209050919050565b60006020601f8301049050919050565b600082821b905092915050565b600060088302620001ac7fffffffffffffffffffffffffffffffffffffffffffffffffffffffffffffffff826200016d565b620001b886836200016d565b95508019841693508086168417925050509392505050565b6000819050919050565b6000819050919050565b600062000205620001ff620001f984620001d0565b620001da565b620001d0565b9050919050565b6000819050919050565b6200022183620001e4565b6200023962000230826200020c565b8484546200017a565b825550505050565b600090565b6200025062000241565b6200025d81848462000216565b505050565b5b8181101562000285576200027960008262000246565b60018101905062000263565b5050565b601f821115620002d4576200029e8162000148565b620002a9846200015d565b81016020851015620002b9578190505b620002d1620002c8856200015d565b83018262000262565b50505b505050565b600082821c905092915050565b6000620002f960001984600802620002d9565b1980831691505092915050565b6000620003148383620002e6565b9150826002028217905092915050565b6200032f82620000aa565b67ffffffffffffffff8111156200034b576200034a620000b5565b5b62000357825462000113565b6200036482828562000289565b600060209050601f8311600181146200039c576000841562000387578287015190505b62000393858262000306565b86555062000403565b601f198416620003ac8662000148565b60005b82811015620003d657848901518255600182019150602085019450602081019050620003af565b86831015620003f65784890151620003f2601f891682620002e6565b8355505b6001600288020188555050505b505050505050565b612196806200041b6000396000f3fe608060405234801561001057600080fd5b50600436106100f55760003560e01c80636352211e11610097578063b88d4fde11610066578063b88d4fde14610296578063c87b56dd146102b2578063d85d3d27146102e2578063e985e9c5146102fe576100f5565b80636352211e146101fc57806370a082311461022c57806395d89b411461025c578063a22cb4651461027a576100f5565b8063095ea7b3116100d3578063095ea7b31461017857806323b872dd14610194578063273ce4e7146101b057806342842e0e146101e0576100f5565b806301ffc9a7146100fa57806306fdde031461012a578063081812fc14610148575b600080fd5b610114600480360381019061010f91906115d3565b61032e565b604051610121919061161b565b60405180910390f35b610132610410565b60405161013f91906116c6565b60405180910390f35b610162600480360381019061015d919061171e565b6104a2565b60405161016f919061178c565b60405180910390f35b610192600480360381019061018d91906117d3565b6104be565b005b6101ae60048036038101906101a99190611813565b6104d4565b005b6101ca60048036038101906101c5919061171e565b6105d6565b6040516101d791906116c6565b60405180910390f35b6101fa60048036038101906101f59190611813565b6106f2565b005b6102166004803603810190610211919061171e565b610712565b604051610223919061178c565b60405180910390f35b61024660048036038101906102419190611866565b610724565b60405161025391906118a2565b60405180910390f35b6102646107de565b60405161027191906116c6565b60405180910390f35b610294600480360381019061028f91906118e9565b610870565b005b6102b060048036038101906102ab9190611a5e565b610886565b005b6102cc60048036038101906102c7919061171e565b6108ab565b6040516102d991906116c6565b60405180910390f35b6102fc60048036038101906102f79190611b82565b610944565b005b61031860048036038101906103139190611bcb565b61098e565b604051610325919061161b565b60405180910390f35b60007f80ac58cd000000000000000000000000000000000000000000000000000000007bffffffffffffffffffffffffffffffffffffffffffffffffffffffff1916827bffffffffffffffffffffffffffffffffffffffffffffffffffffffff191614806103f957507f5b5e139f000000000000000000000000000000000000000000000000000000007bffffffffffffffffffffffffffffffffffffffffffffffffffffffff1916827bffffffffffffffffffffffffffffffffffffffffffffffffffffffff1916145b80610409575061040882610a22565b5b9050919050565b60606000805461041f90611c3a565b80601f016020809104026020016040519081016040528092919081815260200182805461044b90611c3a565b80156104985780601f1061046d57610100808354040283529160200191610498565b820191906000526020600020905b81548152906001019060200180831161047b57829003601f168201915b5050505050905090565b60006104ad82610a8c565b506104b782610b14565b9050919050565b6104d082826104cb610b51565b610b59565b5050565b600073ffffffffffffffffffffffffffffffffffffffff168273ffffffffffffffffffffffffffffffffffffffff16036105465760006040517f64a0ae9200000000000000000000000000000000000000000000000000000000815260040161053d919061178c565b60405180910390fd5b600061055a8383610555610b51565b610b6b565b90508373ffffffffffffffffffffffffffffffffffffffff168173ffffffffffffffffffffffffffffffffffffffff16146105d0578382826040517f64283d7b0000000000000000000000000000000000000000000000000000000081526004016105c793929190611c6b565b60405180910390fd5b50505050565b6060600073ffffffffffffffffffffffffffffffffffffffff166105f983610d85565b73ffffffffffffffffffffffffffffffffffffffff160361064f576040517f08c379a000000000000000000000000000000000000000000000000000000000815260040161064690611d14565b60405180910390fd5b60076000838152602001908152602001600020805461066d90611c3a565b80601f016020809104026020016040519081016040528092919081815260200182805461069990611c3a565b80156106e65780601f106106bb576101008083540402835291602001916106e6565b820191906000526020600020905b8154815290600101906020018083116106c957829003601f168201915b50505050509050919050565b61070d83838360405180602001604052806000815250610886565b505050565b600061071d82610a8c565b9050919050565b60008073ffffffffffffffffffffffffffffffffffffffff168273ffffffffffffffffffffffffffffffffffffffff16036107975760006040517f89c62b6400000000000000000000000000000000000000000000000000000000815260040161078e919061178c565b60405180910390fd5b600360008373ffffffffffffffffffffffffffffffffffffffff1673ffffffffffffffffffffffffffffffffffffffff168152602001908152602001600020549050919050565b6060600180546107ed90611c3a565b80601f016020809104026020016040519081016040528092919081815260200182805461081990611c3a565b80156108665780601f1061083b57610100808354040283529160200191610866565b820191906000526020600020905b81548152906001019060200180831161084957829003601f168201915b5050505050905090565b61088261087b610b51565b8383610dc2565b5050565b6108918484846104d4565b6108a561089c610b51565b85858585610f31565b50505050565b6060600073ffffffffffffffffffffffffffffffffffffffff166108ce83610d85565b73ffffffffffffffffffffffffffffffffffffffff1603610924576040517f08c379a000000000000000000000000000000000000000000000000000000000815260040161091b90611d14565b60405180910390fd5b6040518060600160405280602b8152602001612136602b91399050919050565b60006006600081548092919061095990611d63565b91905055905061096933826110e2565b816007600083815260200190815260200160002090816109899190611f57565b505050565b6000600560008473ffffffffffffffffffffffffffffffffffffffff1673ffffffffffffffffffffffffffffffffffffffff16815260200190815260200160002060008373ffffffffffffffffffffffffffffffffffffffff1673ffffffffffffffffffffffffffffffffffffffff16815260200190815260200160002060009054906101000a900460ff16905092915050565b60007f01ffc9a7000000000000000000000000000000000000000000000000000000007bffffffffffffffffffffffffffffffffffffffffffffffffffffffff1916827bffffffffffffffffffffffffffffffffffffffffffffffffffffffff1916149050919050565b600080610a9883610d85565b9050600073ffffffffffffffffffffffffffffffffffffffff168173ffffffffffffffffffffffffffffffffffffffff1603610b0b57826040517f7e273289000000000000000000000000000000000000000000000000000000008152600401610b0291906118a2565b60405180910390fd5b80915050919050565b60006004600083815260200190815260200160002060009054906101000a900473ffffffffffffffffffffffffffffffffffffffff169050919050565b600033905090565b610b668383836001611100565b505050565b600080610b7784610d85565b9050600073ffffffffffffffffffffffffffffffffffffffff168373ffffffffffffffffffffffffffffffffffffffff1614610bb957610bb88184866112c5565b5b600073ffffffffffffffffffffffffffffffffffffffff168173ffffffffffffffffffffffffffffffffffffffff1614610c4a57610bfb600085600080611100565b6001600360008373ffffffffffffffffffffffffffffffffffffffff1673ffffffffffffffffffffffffffffffffffffffff168152602001908152602001600020600082825403925050819055505b600073ffffffffffffffffffffffffffffffffffffffff168573ffffffffffffffffffffffffffffffffffffffff1614610ccd576001600360008773ffffffffffffffffffffffffffffffffffffffff1673ffffffffffffffffffffffffffffffffffffffff168152602001908152602001600020600082825401925050819055505b846002600086815260200190815260200160002060006101000a81548173ffffffffffffffffffffffffffffffffffffffff021916908373ffffffffffffffffffffffffffffffffffffffff160217905550838573ffffffffffffffffffffffffffffffffffffffff168273ffffffffffffffffffffffffffffffffffffffff167fddf252ad1be2c89b69c2b068fc378daa952ba7f163c4a11628f55a4df523b3ef60405160405180910390a4809150509392505050565b60006002600083815260200190815260200160002060009054906101000a900473ffffffffffffffffffffffffffffffffffffffff169050919050565b600073ffffffffffffffffffffffffffffffffffffffff168273ffffffffffffffffffffffffffffffffffffffff1603610e3357816040517f5b08ba18000000000000000000000000000000000000000000000000000000008152600401610e2a919061178c565b60405180910390fd5b80600560008573ffffffffffffffffffffffffffffffffffffffff1673ffffffffffffffffffffffffffffffffffffffff16815260200190815260200160002060008473ffffffffffffffffffffffffffffffffffffffff1673ffffffffffffffffffffffffffffffffffffffff16815260200190815260200160002060006101000a81548160ff0219169083151502179055508173ffffffffffffffffffffffffffffffffffffffff168373ffffffffffffffffffffffffffffffffffffffff167f17307eab39ab6107e8899845ad3d59bd9653f200f220920489ca2b5937696c3183604051610f24919061161b565b60405180910390a3505050565b60008373ffffffffffffffffffffffffffffffffffffffff163b11156110db578273ffffffffffffffffffffffffffffffffffffffff1663150b7a02868685856040518563ffffffff1660e01b8152600401610f90949392919061207e565b6020604051808303816000875af1925050508015610fcc57506040513d601f19601f82011682018060405250810190610fc991906120df565b60015b611050573d8060008114610ffc576040519150601f19603f3d011682016040523d82523d6000602084013e611001565b606091505b50600081510361104857836040517f64a0ae9200000000000000000000000000000000000000000000000000000000815260040161103f919061178c565b60405180910390fd5b805160208201fd5b63150b7a0260e01b7bffffffffffffffffffffffffffffffffffffffffffffffffffffffff1916817bffffffffffffffffffffffffffffffffffffffffffffffffffffffff1916146110d957836040517f64a0ae920000000000000000000000000000000000000000000000000000000081526004016110d0919061178c565b60405180910390fd5b505b5050505050565b6110fc828260405180602001604052806000815250611389565b5050565b80806111395750600073ffffffffffffffffffffffffffffffffffffffff168273ffffffffffffffffffffffffffffffffffffffff1614155b1561126d57600061114984610a8c565b9050600073ffffffffffffffffffffffffffffffffffffffff168373ffffffffffffffffffffffffffffffffffffffff16141580156111b457508273ffffffffffffffffffffffffffffffffffffffff168173ffffffffffffffffffffffffffffffffffffffff1614155b80156111c757506111c5818461098e565b155b1561120957826040517fa9fbf51f000000000000000000000000000000000000000000000000000000008152600401611200919061178c565b60405180910390fd5b811561126b57838573ffffffffffffffffffffffffffffffffffffffff168273ffffffffffffffffffffffffffffffffffffffff167f8c5be1e5ebec7d5bd14f71427d1e84f3dd0314c0f7b2291e5b200ac8c7c3b92560405160405180910390a45b505b836004600085815260200190815260200160002060006101000a81548173ffffffffffffffffffffffffffffffffffffffff021916908373ffffffffffffffffffffffffffffffffffffffff16021790555050505050565b6112d08383836113ad565b61138457600073ffffffffffffffffffffffffffffffffffffffff168373ffffffffffffffffffffffffffffffffffffffff160361134557806040517f7e27328900000000000000000000000000000000000000000000000000000000815260040161133c91906118a2565b60405180910390fd5b81816040517f177e802f00000000000000000000000000000000000000000000000000000000815260040161137b92919061210c565b60405180910390fd5b505050565b611393838361146e565b6113a861139e610b51565b6000858585610f31565b505050565b60008073ffffffffffffffffffffffffffffffffffffffff168373ffffffffffffffffffffffffffffffffffffffff161415801561146557508273ffffffffffffffffffffffffffffffffffffffff168473ffffffffffffffffffffffffffffffffffffffff1614806114265750611425848461098e565b5b8061146457508273ffffffffffffffffffffffffffffffffffffffff1661144c83610b14565b73ffffffffffffffffffffffffffffffffffffffff16145b5b90509392505050565b600073ffffffffffffffffffffffffffffffffffffffff168273ffffffffffffffffffffffffffffffffffffffff16036114e05760006040517f64a0ae920000000000000000000000000000000000000000000000000000000081526004016114d7919061178c565b60405180910390fd5b60006114ee83836000610b6b565b9050600073ffffffffffffffffffffffffffffffffffffffff168173ffffffffffffffffffffffffffffffffffffffff16146115625760006040517f73c6ac6e000000000000000000000000000000000000000000000000000000008152600401611559919061178c565b60405180910390fd5b505050565b6000604051905090565b600080fd5b600080fd5b60007fffffffff0000000000000000000000000000000000000000000000000000000082169050919050565b6115b08161157b565b81146115bb57600080fd5b50565b6000813590506115cd816115a7565b92915050565b6000602082840312156115e9576115e8611571565b5b60006115f7848285016115be565b91505092915050565b60008115159050919050565b61161581611600565b82525050565b6000602082019050611630600083018461160c565b92915050565b600081519050919050565b600082825260208201905092915050565b60005b83811015611670578082015181840152602081019050611655565b60008484015250505050565b6000601f19601f8301169050919050565b600061169882611636565b6116a28185611641565b93506116b2818560208601611652565b6116bb8161167c565b840191505092915050565b600060208201905081810360008301526116e0818461168d565b905092915050565b6000819050919050565b6116fb816116e8565b811461170657600080fd5b50565b600081359050611718816116f2565b92915050565b60006020828403121561173457611733611571565b5b600061174284828501611709565b91505092915050565b600073ffffffffffffffffffffffffffffffffffffffff82169050919050565b60006117768261174b565b9050919050565b6117868161176b565b82525050565b60006020820190506117a1600083018461177d565b92915050565b6117b08161176b565b81146117bb57600080fd5b50565b6000813590506117cd816117a7565b92915050565b600080604083850312156117ea576117e9611571565b5b60006117f8858286016117be565b925050602061180985828601611709565b9150509250929050565b60008060006060848603121561182c5761182b611571565b5b600061183a868287016117be565b935050602061184b868287016117be565b925050604061185c86828701611709565b9150509250925092565b60006020828403121561187c5761187b611571565b5b600061188a848285016117be565b91505092915050565b61189c816116e8565b82525050565b60006020820190506118b76000830184611893565b92915050565b6118c681611600565b81146118d157600080fd5b50565b6000813590506118e3816118bd565b92915050565b60008060408385031215611900576118ff611571565b5b600061190e858286016117be565b925050602061191f858286016118d4565b9150509250929050565b600080fd5b600080fd5b7f4e487b7100000000000000000000000000000000000000000000000000000000600052604160045260246000fd5b61196b8261167c565b810181811067ffffffffffffffff8211171561198a57611989611933565b5b80604052505050565b600061199d611567565b90506119a98282611962565b919050565b600067ffffffffffffffff8211156119c9576119c8611933565b5b6119d28261167c565b9050602081019050919050565b82818337600083830152505050565b6000611a016119fc846119ae565b611993565b905082815260208101848484011115611a1d57611a1c61192e565b5b611a288482856119df565b509392505050565b600082601f830112611a4557611a44611929565b5b8135611a558482602086016119ee565b91505092915050565b60008060008060808587031215611a7857611a77611571565b5b6000611a86878288016117be565b9450506020611a97878288016117be565b9350506040611aa887828801611709565b925050606085013567ffffffffffffffff811115611ac957611ac8611576565b5b611ad587828801611a30565b91505092959194509250565b600067ffffffffffffffff821115611afc57611afb611933565b5b611b058261167c565b9050602081019050919050565b6000611b25611b2084611ae1565b611993565b905082815260208101848484011115611b4157611b4061192e565b5b611b4c8482856119df565b509392505050565b600082601f830112611b6957611b68611929565b5b8135611b79848260208601611b12565b91505092915050565b600060208284031215611b9857611b97611571565b5b600082013567ffffffffffffffff811115611bb657611bb5611576565b5b611bc284828501611b54565b91505092915050565b60008060408385031215611be257611be1611571565b5b6000611bf0858286016117be565b9250506020611c01858286016117be565b9150509250929050565b7f4e487b7100000000000000000000000000000000000000000000000000000000600052602260045260246000fd5b60006002820490506001821680611c5257607f821691505b602082108103611c6557611c64611c0b565b5b50919050565b6000606082019050611c80600083018661177d565b611c8d6020830185611893565b611c9a604083018461177d565b949350505050565b7f5a696e654e46543a20717565727920666f72206e6f6e6578697374656e74207460008201527f6f6b656e00000000000000000000000000000000000000000000000000000000602082015250565b6000611cfe602483611641565b9150611d0982611ca2565b604082019050919050565b60006020820190508181036000830152611d2d81611cf1565b9050919050565b7f4e487b7100000000000000000000000000000000000000000000000000000000600052601160045260246000fd5b6000611d6e826116e8565b91507fffffffffffffffffffffffffffffffffffffffffffffffffffffffffffffffff8203611da057611d9f611d34565b5b600182019050919050565b60008190508160005260206000209050919050565b60006020601f8301049050919050565b600082821b905092915050565b600060088302611e0d7fffffffffffffffffffffffffffffffffffffffffffffffffffffffffffffffff82611dd0565b611e178683611dd0565b95508019841693508086168417925050509392505050565b6000819050919050565b6000611e54611e4f611e4a846116e8565b611e2f565b6116e8565b9050919050565b6000819050919050565b611e6e83611e39565b611e82611e7a82611e5b565b848454611ddd565b825550505050565b600090565b611e97611e8a565b611ea2818484611e65565b505050565b5b81811015611ec657611ebb600082611e8f565b600181019050611ea8565b5050565b601f821115611f0b57611edc81611dab565b611ee584611dc0565b81016020851015611ef4578190505b611f08611f0085611dc0565b830182611ea7565b50505b505050565b600082821c905092915050565b6000611f2e60001984600802611f10565b1980831691505092915050565b6000611f478383611f1d565b9150826002028217905092915050565b611f6082611636565b67ffffffffffffffff811115611f7957611f78611933565b5b611f838254611c3a565b611f8e828285611eca565b600060209050601f831160018114611fc15760008415611faf578287015190505b611fb98582611f3b565b865550612021565b601f198416611fcf86611dab565b60005b82811015611ff757848901518255600182019150602085019450602081019050611fd2565b868310156120145784890151612010601f891682611f1d565b8355505b6001600288020188555050505b505050505050565b600081519050919050565b600082825260208201905092915050565b600061205082612029565b61205a8185612034565b935061206a818560208601611652565b6120738161167c565b840191505092915050565b6000608082019050612093600083018761177d565b6120a0602083018661177d565b6120ad6040830185611893565b81810360608301526120bf8184612045565b905095945050505050565b6000815190506120d9816115a7565b92915050565b6000602082840312156120f5576120f4611571565b5b6000612103848285016120ca565b91505092915050565b6000604082019050612121600083018561177d565b61212e6020830184611893565b939250505056fe68747470733a2f2f6578616d706c652e636f6d2f7a696e655f646170705f6d657461646174612e6a736f6ea26469706673582212203ba5ff14e6801351ea4a11d067bab522674fb3a5afe136fd676bd5bc47f09df164736f6c63430008180033",
  "linkReferences": {},
  "deployedLinkReferences": {}
}